:020000040800F2
:1000000000000120F5150008051500080B15000873
:1000100011150008171500081D1500080000000044
:100020000000000000000000000000002315000890
:100030002F150008000000003B15000847150008B8
:100040003D1600083D1600083D1600083D16000844
:100050003D1600083D1600083D1600083D16000834
:100060003D1600083D1600083D1600083D16000824
:100070003D1600083D1600083D1600083D16000814
:100080003D1600083D1600083D1600083D16000804
:100090003D1600083D1600083D1600083D160008F4
:1000A0003D1600083D1600083D1600083D160008E4
:1000B000551500083D1600083D1600083D160008BD
:1000C0003D1600083D1600083D1600083D160008C4
:1000D0003D1600083D1600083D1600086915000889
:1000E0003D1600083D1600083D1600083D160008A4
:1000F0003D1600083D1600083D1600083D16000894
:100100003D1600083D1600083D1600083D16000883
:100110003D1600083D1600083D1600083D16000873
:100120003D1600083D1600083D1600083D16000863
:1001300000000000000000000000000000000000BF
:1001400000000000000000000000000000000000AF
:10015000000000000000000000000000000000009F
:10016000000000000000000000000000000000008F
:10017000000000000000000000000000000000007F
:10018000000000000000000000000000000000006F
:10019000000000000000000000000000000000005F
:1001A000000000000000000000000000000000004F
:1001B000000000000000000000000000000000003F
:1001C000000000000000000000000000000000002F
:1001D000000000000000000000000000000000001F
:0401E0005FF8E0F1F3
:1001E40010B5054C237833B9044B13B10448AFF36D
:1001F40000800123237010BDB00000200000000027
:10020400E44B000808B5034B1BB103490348AFF3A3
:10021400008008BD00000000B4000020E44B00088A
:1002240080B500AF0A4B1B68002B0FDD084B1B6821
:10023400013B074A1360064B1B68002B06DC044B8A
:1002440032221A600421034801F07AFE00BF80BD07
:1002540000000020000C014080B400AF054B1B7867
:10026400302B01D1012300E000231846BD4680BC99
:10027400704700BF4801002080B400AF054B1B78D5
:10028400322B01D1012300E000231846BD4680BC77
:10029400704700BF4801002080B400AF054B1B78B5
:1002A400332B01D1012300E000231846BD4680BC56
:1002B400704700BF4801002080B400AF054B1B7895
:1002C400342B01D1012300E000231846BD4680BC35
:1002D400704700BF4801002080B500AFBD4B1B78BC
:1002E400062B00F2D98101A252F823F00D03000875
:1002F4009D0600083B0300084D0300085B0300084B
:10030400310400083F0500080121002000F02DFE03
:10031400B14800F00EFEFFF79FFF0346002B03D009
:10032400AC4B02221A7002E0AA4B00221A70AB4BAB
:1003340000221A70D3E1A74B03221A7000F00EFEBC
:10034400A64B00221A70CAE1A24B04221A70A34BD6
:1003540000221A70C3E10521002000F006FEA04827
:1003640000F0E7FD9F4B1B68092B03D09E4B1B68D5
:10037400092B2BD100F0F2FD0521002000F0F5FD42
:10038400974800F0D6FD0021012000F0EEFD9748CB
:1003940000F0CFFD0621012000F0E7FD914B1B6822
:1003A4001A469349934803F0E1FF924800F0C1FDD7
:1003B4000A21012000F0D9FD8B4B1B681A468C4999
:1003C4008C4803F0D3FF8B4800F0B3FD00210120DB
:1003D40000F0CBFD854800F0ACFD0621012000F0C3
:1003E400C4FD804B1B681A468149824803F0BEFF56
:1003F400804800F09EFD0A21012000F0B6FD7A4BF2
:100404001B681A467A497B4803F0B0FF794800F02C
:1004140090FDFFF731FF0346002B00F05B816F4B2B
:1004240000221A706B4B05221A7053E1724B1B6841
:10043400002B0ED10221002000F097FD6F4800F040
:1004440078FD0021012000F090FD6D4800F071FD61
:1004540006E00121002000F088FD6A4800F069FDF3
:10046400FFF71AFF0346002B36D0634B1B68002BA3
:1004740028D15A4B1B78303B642202FB03F3624AB7
:10048400136000F06BFD0021012000F06EFD5F4859
:1004940000F04FFD0C21012000F067FD5A4B1B6852
:1004A4005B4A82FB03125211DB17D31A1A465049D6
:1004B400584803F05BFF574800F03BFD4E4B0122C8
:1004C4001A6005E0434B06221A704B4B00221A6057
:1004D400424B00221A70FFE0404B1B78002B00F0C7
:1004E400FB803E4B1B78303B642202FB03F3464AFD
:1004F400136000F033FD0021012000F036FD434875
:1005040000F017FD0C21012000F02FFD3E4B1B686D
:100514003F4A82FB03125211DB17D31A1A4634499D
:100524003C4803F023FF3B4800F003FD2B4B002223
:100534001A70314B01221A60CEE02F4B1B68002B3E
:100544000ED10121002000F010FD334800F0F1FC31
:100554000021012000F009FD294800F0EAFC06E032
:100564000121002000F001FD264800F0E2FCFFF725
:10057400A3FE0346002B5FD01F4B1B68002B4FD1FB
:10058400164B1B78303B642202FB03F3234A1360AF
:1005940000F0E4FC0021012000F0E7FC1B4800F01F
:1005A400C8FC0C21012000F0E0FC1C4B1B68184A1D
:1005B40082FB03125211DB17D31A1A460C49154851
:1005C40003F0D4FE134800F0B4FC0B4B01221A6074
:1005D4002EE000BFCC000020FC4B000848010020A6
:1005E4000C4C0008E4000020E8000020144C000833
:1005F4001C4C00083C010020D0000020204C0008C6
:10060400304C0008404C000814000020504C0008F6
:100614001F85EB51400100205C4C000818000020AD
:10062400304B07221A7000F099FC2F4B00221A60FD
:100634002E4B00221A7051E02C4B1B78002B4DD00E
:100644002A4B1B78303B642202FB03F3284A1360D5
:1006540000F084FC0021012000F087FC254800F014
:1006640068FC0C21012000F080FC214B1B68224A0D
:1006740082FB03125211DB17D31A1A461F49204872
:1006840003F074FE1E4800F054FC184B00221A704C
:10069400154B01221A6021E0124B00221A70134BF1
:1006A40000221A70174B4FF4FA721A60164B4FF46B
:1006B400FA721A60154B64221A60154B64221A6090
:1006C400144B00221A60144B00221A60134B0022B0
:1006D4001A6004E000BF02E000BF00E000BF00BFFA
:1006E40080BD00BFCC000020D000002048010020C5
:1006F40018000020504C00081F85EB511C4C0008CA
:100704004001002008000020040000200C0000200C
:1007140010000020D8000020DC000020E0000020B1
:1007240080B400AF1E4B1B68032B33D801A252F8D0
:1007340023F000BF49070008650700087107000897
:100744008D070008174B1A68174B1B6813441A4689
:10075400164B1A60134B1B681A46154B1A601AE0A5
:10076400114B1B681A46124B1A6014E00D4B1A68A1
:100774000D4B1B6813441A460D4B1A60094B1B683A
:100784001A460A4B1A6006E0074B1B681A46074BC9
:100794001A6000E000BF00BFBD4680BC704700BFC8
:1007A400D8000020140000201800002004000020BD
:1007B4000800002080B500AF00221021024801F09B
:1007C400A7FB00BF80BD00BF0010014080B582B010
:1007D40000AF78607B68002B0BDD04E00122102160
:1007E400064801F095FB7B685A1E7A60002BF5D110
:1007F40000E000BF0837BD4680BD00BF00100140C7
:1008040080B500AF01222021024801F081FB00BF26
:1008140080BD00BF0010014080B582B000AF786099
:100824007B68002B0BDD04E000220821064801F060
:100834006FFB7B685A1E7A60002BF5D100E000BF85
:100844000837BD4680BD00BF0010014080B582B0AE
:1008540000AF78607B68002B0BDD04E001220821E7
:10086400064801F055FB7B685A1E7A60002BF5D1CF
:1008740000E000BF0837BD4680BD00BF0010014046
:1008840080B582B000AF0346FB71FB791A46402164
:10089400034801F03DFB00BF0837BD4680BD00BFE3
:1008A4000010014080B582B000AF0120FFF78EFF39
:1008B4000023FB710BE00120FFF7C8FF0020FFF7C6
:1008C400DFFF0A20FFF7A8FFFB790133FB71FB79F7
:1008D400132BF0D9FFF76EFF00BF0837BD4680BD6C
:1008E40080B584B000AF786039600120FFF76EFFF7
:1008F4000023FB7319E00120FFF7A8FF0F4B1A68D0
:100904007B681A400D4B1B689A420CBF01230023DD
:10091400DBB21846FFF7B4FF7B685B007B600A20FC
:10092400FFF77AFFFB7B0133FB73FB7B132BE2D9CD
:10093400FFF740FF00BF1037BD4680BD3C000020DC
:1009440080B500AF444B1B68002B03D1434B1B689D
:10095400002B7FD0404B1A68414BA3FB02135B0969
:10096400642101FB03F3D31A002B0BD03B4B1A6811
:100974003B4BA3FB02135B09642101FB03F3D31A72
:10098400002B29D1374B1B68002B03F00103B8BFA0
:100994005B42012B10D1304B1B68314AA2FB03236D
:1009A4005B09314A13602D4B1B682D4AA2FB0323BC
:1009B4005B092E4A13600FE0284B1B68284AA2FBF0
:1009C40003235B09294A1360234B1B68244AA2FBB7
:1009D40003235B09244A13601F4B1B68002B04D0BC
:1009E4001D4B1B68013B1C4A13601C4B1B68002BEE
:1009F40004D01A4B1B68013B184A1360164B1B6842
:100A0400002B03D0154B1B68002B23D1FFF788FE66
:100A1400174B1B68002B03D0154B1B68022B04D10A
:100A2400104B1B6801330F4A1360114B1B68114AAA
:100A340052F8233004211846FFF752FF0C4B1B6871
:100A440001330B4A13600A4B1B68042B02D1084B79
:100A540000221A6000BF80BD0800002004000020AE
:100A64001F85EB51D4000020E4000020E8000020A2
:100A7400D80000201C00002080B500AF134B1B6879
:100A8400002B20D0114B1B68013B104A13600F4B05
:100A94001B68002B17D10D4B64221A600C4B1B688A
:100AA4000C4A52F8233002211846FFF719FF084B6D
:100AB4001B680133064A1360054B1B68022B02D1E5
:100AC400034B00221A6000BF80BD00BF0C00002051
:100AD400DC0000202C00002080B500AF134B1B6805
:100AE400002B20D0114B1B68013B104A13600F4BA5
:100AF4001B68002B17D10D4B64221A600C4B1B682A
:100B04000C4A52F8233002211846FFF7E9FE084B3D
:100B14001B680133064A1360054B1B68022B02D184
:100B2400034B00221A6000BF80BD00BF10000020EC
:100B3400E00000203400002080B500AF134B144ABD
:100B44001A60124B134A5A60104B00229A600F4BE2
:100B540040F20F32DA600D4B4FF480421A610B4BB6
:100B640000225A61094BFF229A61084B0022DA6184
:100B7400064B00221A62054801F0FCF90346002BDB
:100B840001D000F0CFFB00BF80BD00BF4C010020AE
:100B940000540040801A060080B586B002AF0346B8
:100BA400FB71104AFB7913700F4B80221A7080235B
:100BB4003B7307F10C024FF6FF73009301234221AC
:100BC4000A4801F01BFB642000F09AFD00F010F8C5
:100BD40000220221102000F017F800BF1037BD4694
:100BE40080BD00BFA7010020A40100204C0100200B
:100BF40080B400AF034B00221A7000BFBD4680BC16
:100C0400704700BFA901002080B582B000AF034641
:100C1400FB710B46BB7113467B71BB79012B06D963
:100C24002B4B1B7843F00803DAB2294B1A70294A7C
:100C3400BB791370FA79FB7940334021002000F02E
:100C44004FF87B79002B09D0BB79012B06D1204BBF
:100C54001B7843F00403DAB21D4B1A70322000F003
:100C64004FFD002000F022F9032000F00EF90520CA
:100C740000F046FD032000F008F9052000F040FDD7
:100C8400032000F002F9022000F03AFD022000F0F7
:100C9400FCF80F4B1B7843F02003DBB2184600F03E
:100CA4008FF80D4B04221A7000F074F800F036F837
:100CB4000A4B02221A70094B1B7843F00403DBB27F
:100CC400184600F07DF800BF0837BD4680BD00BF60
:100CD400A9010020A6010020A5010020A8010020F0
:100CE40080B485B000AFF860B9607A603B60FB689F
:100CF400DAB2094B1A70BB68DAB2074B5A707B68D8
:100D0400DAB2054B9A703B68DAB2034BDA7000BF73
:100D14001437BD4680BC7047A001002080B500AFE9
:100D2400012000F04DF8022000F0EAFC00BF80BD75
:100D340080B584B000AF03460A46FB711346BB710D
:100D44000423FB60BB79FA689A4203D8FB68DBB2E0
:100D5400013BBB710D4B1B78BA799A4203D30B4B01
:100D64001B78013BBB71BB79094AD25CFB79134404
:100D7400DBB25BB263F07F035BB2DBB2184600F018
:100D84001FF800BF1037BD4680BD00BFA60100207C
:100D9400A001002080B500AF084B1B7843F004038A
:100DA400DAB2064B1A70054B1B7843F00803DBB22A
:100DB400184600F005F800BF80BD00BFA501002063
:100DC40080B582B000AF0346FB71FB790021184661
:100DD40000F013F800BF0837BD4680BD80B582B06F
:100DE40000AF0346FB71FB794021184600F005F87B
:100DF400012318460837BD4680BD80B584B000AFD6
:100E040003460A46FB711346BB71FB791B09FB734E
:100E1400FB7903F00F03BB73FA7BBB791343DBB29B
:100E2400184600F032F8BA7BBB791343DBB218469C
:100E340000F02BF800BF1037BD4680BD80B582B0EE
:100E440000AF0346FB71FB7923F01003DBB21846B5
:100E540000F02CF8012000F053FCFB7943F0100360
:100E6400DBB2184600F022F8012000F049FCFB79BF
:100E740023F01003DBB2184600F018F8012000F04C
:100E84003FFC00BF0837BD4680BD80B582B000AFCF
:100E94000346FB71FB79184600F008F8FB79184605
:100EA400FFF7CCFF00BF0837BD4680BD80B586B0D4
:100EB40002AF0346FB710B4B1A78FB791343DBB289
:100EC4003B73094B1B7899B207F10C024FF6FF7381
:100ED40000930123054801F091F900BF1037BD4686
:100EE40080BD00BFA4010020A70100204C01002008
:100EF40080B500AF4220FFF74FFE00BF80BD80B534
:100F040082B000AF0346FB71FB791846FFF758FF28
:100F140000BF0837BD4680BD80B582B000AF034630
:100F2400FB71FB791846FFF759FF00BF0837BD4630
:100F340080BD80B582B000AF786006E07B685A1C43
:100F44007A601B781846FFF7E7FF7B681B78002B55
:100F5400F4D100BF00BF0837BD4680BD80B500AFE7
:100F64000120FFF7CCFF00BF80BD80B582B000AF89
:100F7400786039603B68DBB27A68D2B211461846B1
:100F8400FFF7D6FE00BF0837BD4680BD80B582B0EE
:100F940000AF78607B681B68084A93420AD1C82373
:100FA40001220749074802F0C4FC0122044905480C
:100FB40002F051FD00BF0837BD4680BD0048004027
:100FC40048010020F800002080B500AF00F036FB97
:100FD400FFF7B2FDFFF78CFF00F024F800F08CF867
:100FE40000F000F900F05AF800F0D2F801220421D0
:100FF400084800F08DFFFFF703FCFFF753FC0122C4
:101004000549064802F027FD054802F067F8FFF796
:1010140063F9FCE7000C014048010020F8000020BF
:101024000002002080B590B000AF07F11803282219
:101034000021184603F092F93B1D00221A605A6001
:101044009A60DA601A610223BB610123BB62102338
:10105400FB6200237B6307F11803184601F0D4FBFD
:101064000346002B01D000F05DF90F237B600023C1
:10107400BB600023FB6000233B6100237B613B1DBD
:101084000021184601F040FE0346002B01D000F079
:1010940049F900BF4037BD4680BD000080B500AFB0
:1010A400124B134A1A60114B124A5A600F4B00221A
:1010B4009A600E4B0022DA600C4B4FF480421A61A6
:1010C4000A4B00225A61094B00229A61074B002205
:1010D400DA61064B00221A62044800F04BFF034613
:1010E400002B01D000F01EF900BF80BDAC01002030
:1010F40000540040A086010080B586B000AF07F11F
:10110400080300221A605A609A60DA603B460022A3
:101114001A605A601D4B4FF080421A601B4B41F617
:101124003F725A60194B00229A60184B0922DA6008
:10113400164B00221A61154B00229A61134801F0E4
:101144007DFF0346002B01D000F0ECF84FF48053F0
:10115400BB6007F1080319460C4802F027F903465F
:10116400002B01D000F0DEF800233B6000237B60FD
:101174003B461946054802F011FB0346002B01D0FB
:1011840000F0D0F800BF1837BD4680BD0002002033
:1011940080B500AF114B124A1A60104B4FF416522F
:1011A4005A600E4B00229A600C4B0022DA600B4B03
:1011B40000221A61094B0C225A61084B00229A61E1
:1011C400064B0022DA61054802F066FB0346002B59
:1011D40001D000F0A7F800BF80BD00BFF8000020D8
:1011E4000048004080B588B000AF07F1100300222A
:1011F4001A605A609A60DA60364B9B69354A43F04C
:1012040010039361334B9B6903F01003FB60FB688D
:10121400304B9B692F4A43F0080393612D4B9B6924
:1012240003F00803BB60BB682A4B9B69294A43F05F
:1012340004039361274B9B6903F004037B607B6881
:10124400244B9B69234A43F020039361214B9B6900
:1012540003F020033B603B68002278211E4800F025
:1012640057FE002204211D4800F052FE00220421F2
:101274001B4800F04DFE78233B6101237B61002372
:10128400BB610223FB6107F110031946124800F009
:10129400ABFC04233B6101237B610023BB6102237C
:1012A400FB6107F1100319460C4800F09DFC042370
:1012B4003B6101237B610023BB610223FB6107F1D6
:1012C40010031946064800F08FFC00BF2037BD46C6
:1012D40080BD00BF0010024000100140000C01401E
:1012E4000014014080B582B000AF78600C4B1B78CD
:1012F400042B02D1FFF724FB0CE0094B1B78052BD0
:1013040002D1FFF7B9FB05E0054B1B78062B01D191
:10131400FFF7E2FBFEF784FF00BF0837BD4680BD40
:10132400CC00002080B400AF72B600BFFEE700001E
:1013340080B485B000AF154B9B69144A43F0010398
:101344009361124B9B6903F00103BB60BB680F4BB5
:10135400DB690E4A43F08053D3610C4BDB6903F025
:1013640080537B607B680A4B5B68FB60FB6823F0FF
:10137400E063FB60FB6843F00073FB60044AFB68B6
:10138400536000BF1437BD4680BC70470010024054
:101394000000014080B588B000AF786007F1100309
:1013A40000221A605A609A60DA607B681B68154AEA
:1013B400934223D1144B9B69134A43F0080393616E
:1013C400114B9B6903F00803FB60FB68C0233B617E
:1013D40012237B610323FB6107F1100319460B48B9
:1013E40000F002FC084BDB69074A43F40013D361A5
:1013F400054BDB6903F40013BB60BB6800BF2037F7
:10140400BD4680BD0054004000100240000C014065
:1014140080B584B000AF78607B681B68B3F1804FFF
:1014240013D10C4BDB690B4A43F00103D361094B25
:10143400DB6903F00103FB60FB68002200211C2030
:1014440000F059FA1C2000F072FA00BF1037BD46B4
:1014540080BD00BF0010024080B588B000AF786046
:1014640007F1100300221A605A609A60DA607B6800
:101474001B68204A934239D11F4BDB691E4A43F44F
:101484008023D3611C4BDB6903F48023FB60FB687E
:10149400194B9B69184A43F008039361164B9B69E7
:1014A40003F00803BB60BB684FF480633B61022315
:1014B4007B610323FB6107F1100319460F4800F019
:1014C40093FB4FF400633B6100237B610023BB610A
:1014D40007F110031946094800F086FB0022002199
:1014E400272000F008FA272000F021FA00BF203757
:1014F400BD4680BD0048004000100240000C014081
:1015040080B400AFFEE780B400AFFEE780B400AF64
:10151400FEE780B400AFFEE780B400AFFEE780B41E
:1015240000AF00BFBD4680BC704780B400AF00BFB1
:10153400BD4680BC704780B400AF00BFBD4680BCD0
:10154400704780B500AF00F0BFF800BF80BD000059
:1015540080B500AF024801F021FE00BF80BD00BF8E
:101564000002002080B500AF024802F0A5FA00BFD7
:1015740080BD00BFF800002080B586B000AF786061
:10158400144A154BD31A7B617B693B61134B1B686F
:10159400002B02D1114B124A1A60104B1A687B6857
:1015A40013443A699A4207D202F0AEFE03460C2273
:1015B4001A604FF0FF3309E0084B1B68FB60074BD0
:1015C4001A687B681344054A1360FB681846183789
:1015D400BD4680BD0000012000040000EC00002096
:1015E4006002002080B400AF00BFBD4680BC7047DD
:1015F4000C480D490D4A002302E0D458C45004336A
:10160400C4188C42F9D30A4A0A4C002301E013603F
:101614000432A242FBD3FFF7E5FF02F07BFEFFF7A3
:10162400D3FC704700000020B0000020D04C00081C
:10163400B00000205C020020FEE7000080B500AF8F
:10164400084B1B68074A43F010031360032000F0A3
:1016540047F90F2000F008F8FFF76AFE0023184648
:1016640080BD00BF0020024080B582B000AF78602A
:10167400124B1A68124B1B7819464FF47A73B3FB5A
:10168400F1F3B2FBF3F3184600F05FF90346002BC5
:1016940001D001230EE07B680F2B0AD80022796861
:1016A4004FF0FF3000F027F9064A7B6813600023EF
:1016B40000E0012318460837BD4680BD40000020E5
:1016C400480000204400002080B400AF054B1B7884
:1016D4001A46054B1B681344034A136000BFBD46FA
:1016E40080BC7047480000204802002080B400AF4E
:1016F400024B1B681846BD4680BC70474802002058
:1017040080B584B000AF7860FFF7F0FFB8607B6805
:10171400FB60FB68B3F1FF3F05D00A4B1B781A4608
:10172400FB681344FB6000BFFFF7E0FF0246BB68A1
:10173400D31AFA689A42F7D800BF00BF1037BD46E3
:1017440080BD00BF4800002080B485B000AF786041
:101754007B6803F00703FB600C4BDB68BB60BA6873
:101764004FF6FF031340BB60FB681A02BB681343C8
:1017740043F0BF6343F40033BB60044ABB68D360E7
:1017840000BF1437BD4680BC704700BF00ED00E0C9
:1017940080B400AF044BDB681B0A03F00703184650
:1017A400BD4680BC704700BF00ED00E080B483B04C
:1017B40000AF0346FB7197F90730002B0BDBFB7975
:1017C40003F01F02064997F907305B09012000FA6C
:1017D40002F241F8232000BF0C37BD4680BC70479D
:1017E40000E100E080B483B000AF03463960FB71D0
:1017F40097F90730002B0ADB3B68DAB20C4997F9FA
:1018040007301201D2B20B4483F800230AE03B688C
:10181400DAB20849FB7903F00F03043B1201D2B298
:101824000B441A7600BF0C37BD4680BC704700BF1E
:1018340000E100E000ED00E080B489B000AFF860A2
:10184400B9607A60FB6803F00703FB61FB69C3F1CD
:101854000703042B28BF0423BB61FB690433062B55
:1018640002D9FB69033B00E000237B614FF0FF32A8
:10187400BB6902FA03F3DA43BB681A407B699A40F6
:101884004FF0FF317B6901FA03F3D9437B680B40C6
:10189400134318462437BD4680BC704780B582B0D8
:1018A40000AF78607B68013BB3F1807F01D30123F3
:1018B4000FE00A4A7B68013B53600F214FF0FF3071
:1018C400FFF790FF054B00229A60044B07221A6031
:1018D400002318460837BD4680BD00BF10E000E075
:1018E40080B582B000AF78607868FFF72DFF00BF45
:1018F4000837BD4680BD80B586B000AF0346B960E9
:101904007A60FB7300237B61FFF742FF78617A689A
:10191400B9687869FFF790FF024697F90F301146CE
:101924001846FFF75FFF00BF1837BD4680BD80B57E
:1019340082B000AF0346FB7197F907301846FFF7F2
:1019440035FF00BF0837BD4680BD80B582B000AF0B
:1019540078607868FFF7A2FF034618460837BD464B
:1019640080BD80B485B000AF78600023FB737B68D2
:1019740093F82130022B08D07B6804229A637B6899
:10198400002283F82020012320E07B681B681A686A
:101994007B681B6822F00E021A607B681B681A6859
:1019A4007B681B6822F001021A607B681A6C7B68F2
:1019B400DB6B012101FA02F25A607B68012283F891
:1019C40021207B68002283F82020FB7B18461437F3
:1019D400BD4680BC7047000080B584B000AF78601D
:1019E4000023FB737B6893F82130022B05D07B68BE
:1019F40004229A630123FB73D6E07B681B681A6890
:101A04007B681B6822F00E021A607B681B681A68E8
:101A14007B681B6822F001021A607B681B681A4607
:101A2400644B9A4258D97B681B68634A93424FD0EF
:101A34007B681B68614A934248D07B681B68604A94
:101A4400934240D07B681B685E4A934238D07B68DF
:101A54001B685D4A934230D07B681B685B4A9342A3
:101A640028D07B681B68534A934220D07B681B684C
:101A7400574A934219D07B681B68564A934212D046
:101A84007B681B68544A93420AD07B681B68534A9C
:101A9400934202D14FF480531BE04FF4803318E09B
:101AA4004FF4807315E0102313E0012311E04FF08D
:101AB40080730EE04FF480130BE04FF4803308E0A2
:101AC4004FF4805305E04FF4807302E0102300E0EC
:101AD4000123434A536057E07B681B68364A9342AC
:101AE4004FD07B681B68354A934248D07B681B689B
:101AF400334A934240D07B681B68324A934238D0C1
:101B04007B681B68304A934230D07B681B682F4A3D
:101B1400934228D07B681B68264A934220D07B6876
:101B24001B682B4A934219D07B681B68294A93424D
:101B340012D07B681B68284A93420AD07B681B68D2
:101B4400264A934202D14FF480531BE04FF4803372
:101B540018E04FF4807315E0102313E0012311E023
:101B64004FF080730EE04FF480130BE04FF480339A
:101B740008E04FF4805305E04FF4807302E0102333
:101B840000E00123174A53607B68012283F8212077
:101B94007B68002283F820207B685B6B002B03D0DA
:101BA4007B685B6B78689847FB7B18461037BD46AB
:101BB40080BD00BF80000240080002401C000240BB
:101BC4003000024044000240580002406C000240D1
:101BD400080402401C040240300402404404024051
:101BE400000402400000024080B48BB000AF786073
:101BF400396000237B6200233B6279E101227B6A26
:101C040002FA03F3FB613B681B68FA691340BB618A
:101C1400BA69FB699A4240F068813B685B68A04AF4
:101C240093425ED09E4A934275D89E4A934258D0BE
:101C34009C4A93426FD89C4A934252D09A4A934208
:101C440069D89A4A93424CD0984A934263D8984AA6
:101C5400934246D0964A93425DD8122B2AD8122B2F
:101C640059D801A252F823F0E71C0008C11C00084F
:101C7400D31C0008151D00081B1D00081B1D0008AF
:101C84001B1D00081B1D00081B1D00081B1D000850
:101C94001B1D00081B1D00081B1D00081B1D000840
:101CA4001B1D00081B1D00081B1D0008C91C000883
:101CB400DD1C00087F4A934213D02CE03B68DB68AC
:101CC4003B6229E03B68DB6804333B6224E03B6809
:101CD400DB6808333B621FE03B68DB680C333B6224
:101CE4001AE03B689B68002B02D104233B6213E09B
:101CF4003B689B68012B05D108233B627B68FA692A
:101D04001A6109E008233B627B68FA695A6103E0BF
:101D140000233B6200E000BFBB69FF2B01D87B6856
:101D240001E07B6804337B61BB69FF2B02D87B6ACB
:101D34009B0002E07B6A083B9B003B617B691A685D
:101D44000F213B6901FA03F3DB431A40396A3B690B
:101D540001FA03F31A437B691A603B685B6803F07A
:101D64008053002B00F0C180534B9B69524A43F0CF
:101D740001039361504B9B6903F00103BB60BB6893
:101D84004E4A7B6A9B08023352F82330FB607B6A1D
:101D940003F003039B000F2202FA03F3DB43FA6808
:101DA4001340FB607B68464A93421FD07B68454AD8
:101DB400934219D07B68444A934213D07B68434AC8
:101DC40093420DD07B68424A934207D07B68414AD4
:101DD400934201D105230AE0062308E0042306E028
:101DE400032304E0022302E0012300E000237A6AD3
:101DF40002F0030292009340FA681343FB602F49F8
:101E04007B6A9B080233FA6841F823203B685B68CD
:101E140003F48033002B06D02F4B1A682E49BB697C
:101E240013430B6006E02C4B1A68BB69DB432A4959
:101E340013400B603B685B6803F40033002B06D04F
:101E4400254B5A682449BB6913434B6006E0224B77
:101E54005A68BB69DB43204913404B603B685B68AD
:101E640003F48013002B06D01B4B9A681A49BB69F4
:101E740013438B6006E0184B9A68BB69DB43164931
:101E840013408B603B685B6803F40013002B25D080
:101E9400114BDA681049BB691343CB6025E000BFDE
:101EA4000000321000003110000022100000211048
:101EB4000000121000001110001002400000014048
:101EC40000080140000C01400010014000140140D2
:101ED40000180140001C0140000401400B4BDA686B
:101EE400BB69DB4309491340CB607B6A01337B62E6
:101EF4003B681A687B6A22FA03F3002B7FF47EAEF8
:101F040000BF00BF2C37BD4680BC704700040140B1
:101F140080B483B000AF78600B467B8013467B703F
:101F24007B78002B03D07A887B681A6103E07B8876
:101F34001A047B681A6100BF0C37BD4680BC704729
:101F440080B485B000AF78600B467B807B68DB682B
:101F5400FB607A88FB6813401A04FB68D9437B88CA
:101F64000B401A437B681A6100BF1437BD4680BC1E
:101F74007047000080B584B000AF78607B68002BA8
:101F840001D101232BE17B6893F83D30DBB2002BB8
:101F940006D17B68002283F83C207868FFF7FAF9C1
:101FA4007B68242283F83D207B681B681A687B6861
:101FB4001B6822F001021A607B681B681A687B6840
:101FC4001B6842F400421A607B681B681A687B68CD
:101FD4001B6822F400421A6000F0EAFFF8607B6894
:101FE4005B68814A934207D8FB68804A934294BF56
:101FF40001230023DBB206E0FB687D4A934294BFD1
:1020040001230023DBB2002B01D00123E7E0FB68AE
:10201400784AA2FB03239B0CBB607B681B685B684C
:1020240023F03F017B681B68BA680A435A607B68E7
:102034001B681B6A23F03F017B685B686A4A934212
:1020440002D8BB68013309E0BB684FF4967202FB07
:1020540003F3694AA2FB03239B0901337A681268DC
:102064000B4313627B681B68DB6923F44F4222F045
:10207400FF027B685B685C498B4219D8FB68591E78
:102084007B685B685B00B1FBF3F3591C40F6FC739F
:102094000B40002B0AD0FB68591E7B685B685B0011
:1020A400B1FBF3F30133C3F30B0351E004234FE01B
:1020B4007B689B68002B11D1FB68581E7B685968AC
:1020C4000B465B000B44B0FBF3F30133C3F30B0388
:1020D400002B0CBF01230023DBB212E0FB68581E67
:1020E4007B6859680B469B000B4499000B44B0FB7A
:1020F400F3F30133C3F30B03002B0CBF01230023C1
:10210400DBB2002B01D0012322E07B689B68002B0B
:102114000ED1FB68581E7B6859680B465B000B4464
:10212400B0FBF3F30133C3F30B0343F400430FE0B9
:10213400FB68581E7B6859680B469B000B4499004A
:102144000B44B0FBF3F30133C3F30B0343F44043F9
:10215400796809681343CB617B681B681B6823F0AB
:10216400C0017B68DA697B681B6A1A437B681B6859
:102174000A431A607B681B689B6823F4034323F0BB
:10218400FF037A6811697A68D26811437A68126821
:102194000B4393607B681B68DB6823F0FF017B685B
:1021A4005A697B689B691A437B681B680A43DA6037
:1021B4007B681B681A687B681B6842F001021A601E
:1021C4007B6800221A647B68202283F83D207B68A8
:1021D40000221A637B68002283F83E2000231846FD
:1021E4001037BD4680BD00BFA08601007F841E005D
:1021F400FF083D0083DE1B43D34D621080B588B0D9
:1022040002AFF8607A601A460B467B8113463B8125
:10221400FFF76CFA7861FB6893F83D30DBB2202B52
:1022240040F0E0807B690093192301227049F8682B
:1022340000F064F90346002B01D00223D3E0FB68CD
:1022440093F83C30012B01D10223CCE0FB6801223E
:1022540083F83C20FB681B681B6803F00103012B17
:1022640007D0FB681B681A68FB681B6842F0010210
:102274001A60FB681B681A68FB681B6822F400621A
:102284001A60FB68212283F83D20FB68102283F842
:102294003E20FB6800221A64FB687A685A62FB6875
:1022A4003A895A85FB685B8D9AB2FB681A85FB688C
:1022B400504ADA6279897B693A6AF86800F09CF8D6
:1022C4000346002B01D001238DE000233B61FB6812
:1022D4001B685B693B61FB681B689B693B613B69ED
:1022E40066E07A69396AF86800F0DEF90346002B83
:1022F4000DD0FB681B6C042B07D1FB681B681A68A4
:10230400FB681B6842F400721A6001236BE0FB68EF
:102314005B6A1A78FB681B681A61FB685B6A5A1C63
:10232400FB685A62FB685B8D9BB2013B9AB2FB6807
:102334005A85FB681B8D013B9AB2FB681A85FB68C2
:102344001B685B6903F00403042B1BD1FB681B8D22
:10235400002B17D0FB685B6A1A78FB681B681A614C
:10236400FB685B6A5A1CFB685A62FB685B8D9BB214
:10237400013B9AB2FB685A85FB681B8D013B9AB2FC
:10238400FB681A857A69396AF86800F0CEF9034661
:10239400002B0DD0FB681B6C042B07D1FB681B685A
:1023A4001A68FB681B6842F400721A6001231AE081
:1023B400FB681B8D002B94D1FB681B681A68FB68B3
:1023C4001B6842F400721A60FB68202283F83D20E7
:1023D400FB68002283F83E20FB68002283F83C203F
:1023E400002300E0022318461837BD4680BD00BF15
:1023F400020010000000FFFF80B588B002AFF86053
:102404007A603B600B467B81FB68DB6A7B617B699E
:10241400082B06D07B69012B03D07B6913F5803F21
:1024240008D1FB681B681A68FB681B6842F4807259
:102434001A600BE0FB681B6B122B07D1FB681B684F
:102444001A68FB681B6842F480721A603B68009348
:102454007B6800224FF00111F86800F04FF8034642
:10246400002B0DD0FB681B681B6803F48073B3F565
:10247400807F03D1FB684FF400721A64032335E0B4
:10248400FB681B69B3F5804F08D17B89DBB21A4620
:10249400FB681B6802F0FE021A611BE07B89DB11FA
:1024A400DBB203F00603DBB263F00F03DAB2FB68BE
:1024B4001B681A613B687A680E49F86800F075F881
:1024C4000346002B01D0012310E07B89DAB2FB68BC
:1024D4001B681A613B687A680749F86800F065F878
:1024E4000346002B01D0012300E0002318461837CF
:1024F400BD4680BD080001000200010080B584B023
:1025040000AFF860B9603B601346FB7125E03B689F
:10251400B3F1FF3F21D0FFF7E9F80246BB69D31AB4
:102524003A689A4202D33B68002B16D1FB6800221A
:102534001A63FB68202283F83D20FB68002283F89D
:102544003E20FB681B6C43F02002FB681A64FB68A6
:10255400002283F83C20012323E0BB681B0CDBB280
:10256400012B0DD1FB681B685B69DA43BB68134020
:102574009BB2002B0CBF01230023DBB21A460CE0F4
:10258400FB681B689B69DA43BB6813409BB2002B52
:102594000CBF01230023DBB21A46FB799A42B6D062
:1025A400002318461037BD4680BD80B584B000AF07
:1025B400F860B9607A603B6051E0FB681B685B6956
:1025C40003F48063B3F5806F23D1FB681B681A683A
:1025D400FB681B6842F400721A60FB681B686FF4A6
:1025E40080625A61FB6800221A63FB68202283F828
:1025F4003D20FB68002283F83E20FB681B6C43F0FF
:102604000402FB681A64FB68002283F83C2001235F
:1026140046E07B68B3F1FF3F21D0FFF767F802463D
:102624003B68D31A7A689A4202D37B68002B16D18E
:10263400FB6800221A63FB68202283F83D20FB68B4
:10264400002283F83E20FB681B6C43F02002FB68E9
:102654001A64FB68002283F83C20012320E0BB6855
:102664001B0CDBB2012B0CD1FB681B685B69DA43E2
:10267400BB6813409BB2002B14BF01230023DBB2C1
:102684000BE0FB681B689B69DA43BB6813409BB291
:10269400002B14BF01230023DBB2002B8DD10023B8
:1026A40018461037BD4680BD80B584B000AFF860D1
:1026B400B9607A602DE0F86800F078F80346002BE2
:1026C40001D001232DE0BB68B3F1FF3F21D0FFF718
:1026D4000DF802467B68D31ABA689A4202D3BB68E3
:1026E400002B16D1FB6800221A63FB68202283F8B2
:1026F4003D20FB68002283F83E20FB681B6C43F0FE
:102704002002FB681A64FB68002283F83C20012342
:1027140007E0FB681B685B6903F08003802BCAD168
:10272400002318461037BD4680BD80B584B000AF85
:10273400F860B9607A602DE0F86800F037F8034675
:10274400002B01D001232DE0BB68B3F1FF3F21D062
:10275400FEF7CCFF02467B68D31ABA689A4202D3CA
:10276400BB68002B16D1FB6800221A63FB68202289
:1027740083F83D20FB68002283F83E20FB681B6C35
:1027840043F02002FB681A64FB68002283F83C20B3
:10279400012307E0FB681B685B6903F00403042B57
:1027A400CAD1002318461037BD4680BD80B483B01B
:1027B40000AF78607B681B685B6903F48063B3F5E2
:1027C400806F1BD17B681B686FF480625A617B68E1
:1027D40000221A637B68202283F83D207B68002254
:1027E40083F83E207B681B6C43F004027B681A6408
:1027F4007B68002283F83C20012300E00023184674
:102804000C37BD4680BC704780B586B000AF786099
:102814007B68002B01D101236CE27B681B6803F009
:102824000103002B00F08780924B5B6803F00C03DC
:10283400042B0CD08F4B5B6803F00C03082B12D1D4
:102844008C4B5B6803F48033B3F5803F0BD1894B29
:102854001B6803F40033002B6CD07B685B68002B8F
:1028640068D1012346E27B685B68B3F5803F06D1FB
:10287400804B1B687F4A43F4803313602EE07B68EF
:102884005B68002B0CD17B4B1B687A4A23F48033A2
:102894001360784B1B68774A23F4802313601DE090
:1028A4007B685B68B3F5A02F0CD1724B1B68714A2F
:1028B40043F4802313606F4B1B686E4A43F48033E8
:1028C40013600BE06B4B1B686A4A23F4803313607C
:1028D400684B1B68674A23F4802313607B685B683A
:1028E400002B13D0FEF702FF386108E0FEF7FEFE6E
:1028F40002463B69D31A642B01D90323FAE15D4BE9
:102904001B6803F40033002BF0D014E0FEF7EEFE56
:10291400386108E0FEF7EAFE02463B69D31A642BED
:1029240001D90323E6E1534B1B6803F40033002B66
:10293400F0D100E000BF7B681B6803F00203002BAA
:1029440063D04C4B5B6803F00C03002B0BD0494B5A
:102954005B6803F00C03082B1CD1464B5B6803F443
:102964008033002B16D1434B1B6803F00203002B6A
:1029740005D07B681B69012B01D00123BAE13D4BD3
:102984001B6823F0F8027B685B69DB003949134359
:102994000B603AE07B681B69002B20D0364B012288
:1029A4001A60FEF7A3FE386108E0FEF79FFE0246B8
:1029B4003B69D31A022B01D903239BE12D4B1B68DE
:1029C40003F00203002BF0D02A4B1B6823F0F8021B
:1029D4007B685B69DB00274913430B6015E0264BDA
:1029E40000221A60FEF782FE386108E0FEF77EFEE0
:1029F40002463B69D31A022B01D903237AE11D4B0A
:102A04001B6803F00203002BF0D17B681B6803F002
:102A14000803002B3AD07B689B69002B19D0174B15
:102A240001221A60FEF762FE386108E0FEF75EFEDE
:102A340002463B69D31A022B01D903235AE10D4BF9
:102A44005B6A03F00203002BF0D0012000F0D8FAF7
:102A54001CE00A4B00221A60FEF748FE38610FE0C2
:102A6400FEF744FE02463B69D31A022B08D903231E
:102A740040E100BF00100240000042428004424294
:102A84009E4B5B6A03F00203002BE9D17B681B6851
:102A940003F00403002B00F0A6800023FB75974B82
:102AA400DB6903F08053002B0DD1944BDB69934A0F
:102AB40043F08053D361914BDB6903F08053BB60D7
:102AC400BB680123FB758E4B1B6803F48073002BDA
:102AD40018D18B4B1B688A4A43F480731360FEF74A
:102AE40005FE386108E0FEF701FE02463B69D31A91
:102AF400642B01D90323FDE0814B1B6803F480732D
:102B0400002BF0D07B68DB68012B06D17B4B1B6A62
:102B14007A4A43F0010313622DE07B68DB68002BE3
:102B24000CD1764B1B6A754A23F001031362734B75
:102B34001B6A724A23F0040313621CE07B68DB689F
:102B4400052B0CD16D4B1B6A6C4A43F004031362D2
:102B54006A4B1B6A694A43F0010313620BE0674B3B
:102B64001B6A664A23F001031362644B1B6A634ABF
:102B740023F0040313627B68DB68002B15D0FEF797
:102B8400B5FD38610AE0FEF7B1FD02463B69D31A90
:102B940041F28832934201D90323ABE0574B1B6ABD
:102BA40003F00203002BEED014E0FEF79FFD386122
:102BB4000AE0FEF79BFD02463B69D31A41F28832D4
:102BC400934201D9032395E04C4B1B6A03F00203A3
:102BD400002BEED1FB7D012B05D1484BDB69474A25
:102BE40023F08053D3617B68DB69002B00F0818084
:102BF400424B5B6803F00C03082B61D07B68DB69F4
:102C0400022B46D13F4B00221A60FEF76FFD38615C
:102C140008E0FEF76BFD02463B69D31A022B01D98B
:102C2400032367E0354B1B6803F00073002BF0D1DE
:102C34007B681B6AB3F5803F08D1304B5B6823F493
:102C440000327B689B682D4913434B602B4B5B68B8
:102C540023F474127B68196A7B685B6A0B43274907
:102C640013434B60274B01221A60FEF73FFD386186
:102C740008E0FEF73BFD02463B69D31A022B01D95B
:102C8400032337E01D4B1B6803F00073002BF0D0C7
:102C94002FE01C4B00221A60FEF728FD386108E083
:102CA400FEF724FD02463B69D31A022B01D9032304
:102CB40020E0124B1B6803F00073002BF0D118E0E6
:102CC4007B68DB69012B01D1012313E00B4B5B68AB
:102CD400FB60FB6803F480327B681B6A9A4206D16E
:102CE400FB6803F470127B685B6A9A4201D001238B
:102CF40000E0002318461837BD4680BD001002408E
:102D0400007000406000424280B584B000AF78603B
:102D140039607B68002B01D10123D0E06A4B1B682A
:102D240003F007033A689A4210D9674B1B6823F0F3
:102D3400070265493B6813430B60634B1B6803F050
:102D440007033A689A4201D00123B8E07B681B6804
:102D540003F00203002B20D07B681B6803F00403FC
:102D6400002B05D0594B5B68584A43F4E063536029
:102D74007B681B6803F00803002B05D0534B5B688A
:102D8400524A43F460535360504B5B6823F0F002A3
:102D94007B689B684D4913434B607B681B6803F059
:102DA4000103002B40D07B685B68012B07D1474BA4
:102DB4001B6803F40033002B15D101237FE07B68EB
:102DC4005B68022B07D1414B1B6803F00073002B97
:102DD40009D1012373E03D4B1B6803F00203002B70
:102DE40001D101236BE0394B5B6823F003027B685C
:102DF4005B68364913434B60FEF778FCF8600AE0E1
:102E0400FEF774FC0246FB68D31A41F288329342FF
:102E140001D9032353E02D4B5B6803F00C027B685C
:102E24005B689B009A42EBD1274B1B6803F00703B6
:102E34003A689A4210D2244B1B6823F007022249B5
:102E44003B6813430B60204B1B6803F007033A688D
:102E54009A4201D0012332E07B681B6803F004032B
:102E6400002B08D0194B5B6823F4E0627B68DB68B5
:102E7400164913434B607B681B6803F00803002B5F
:102E840009D0124B5B6823F460527B681B69DB003A
:102E94000E4913434B6000F021F802460B4B5B686C
:102EA4001B0903F00F030A49CB5C22FA03F3094A16
:102EB4001360094B1B681846FEF7D6FB002318461F
:102EC4001037BD4680BD00BF002002400010024004
:102ED4007C4C0008400000204400002090B48AB0DC
:102EE40000AF2A4B3C1D0FCB84E80F0040F20123B6
:102EF4003B800023FB610023BB6100237B62002332
:102F04007B6100233B62224B5B68FB61FB6903F03E
:102F14000C03042B02D0082B03D02DE01D4B3B6285
:102F24002DE0FB699B0C03F00F0307F12802134407
:102F340013F8243C7B61FB6903F48033002B13D02A
:102F4400134B5B685B0C03F0010307F12802134485
:102F540013F8283CBB617B690E4A02FB03F2BB6990
:102F6400B2FBF3F37B6204E07B690B4A02FB03F3DD
:102F74007B627B6A3B6202E0064B3B6200BF3B6ABA
:102F840018462837BD4690BC704700BF6C4C0008FB
:102F94000010024000127A0000093D0080B400AF26
:102FA400024B1B681846BD4680BC70474000002099
:102FB40080B500AFFFF7F2FF0246054B5B681B0AC2
:102FC40003F007030349CB5C22FA03F3184680BDE0
:102FD400001002408C4C000880B500AFFFF7DEFF04
:102FE4000246054B5B68DB0A03F007030349CB5C2D
:102FF40022FA03F3184680BD001002408C4C0008EE
:1030040080B485B000AF78600A4B1B680A4AA2FB03
:1030140003235B0A7A6802FB03F3FB6000BFFB68CF
:103024005A1EFA60002BF9D100BF00BF1437BD4609
:1030340080BC704740000020D34D621080B582B040
:1030440000AF78607B68002B01D1012341E07B68ED
:1030540093F83D30DBB2002B06D17B68002283F865
:103064003C207868FEF7D4F97B68022283F83D207F
:103074007B681A687B6804331946104600F07EFAB0
:103084007B68012283F846207B68012283F83E2076
:103094007B68012283F83F207B68012283F840206B
:1030A4007B68012283F841207B68012283F8422057
:1030B4007B68012283F843207B68012283F8442043
:1030C4007B68012283F845207B68012283F83D2038
:1030D400002318460837BD4680BD000080B485B083
:1030E40000AF78607B6893F83D30DBB2012B01D0F0
:1030F400012344E07B68022283F83D207B681B683F
:10310400DA687B681B6842F00102DA607B681B683E
:103114001D4A934218D07B681B681C4A934213D003
:103124007B681B68B3F1804F0ED07B681B68184A1C
:10313400934209D07B681B68164A934204D07B688B
:103144001B68154A934211D17B681B689B6803F086
:103154000703FB60FB68062B10D07B681B681A68AA
:103164007B681B6842F001021A6007E07B681B68F9
:103174001A687B681B6842F001021A600023184633
:103184001437BD4680BC7047002C01400034014018
:103194000004004000080040000C004080B582B0EC
:1031A40000AF78607B681B681B6903F00203022B85
:1031B40022D17B681B68DB6803F00203022B1BD15E
:1031C4007B681B686FF002021A617B6801221A7720
:1031D4007B681B689B6903F00303002B03D07868AA
:1031E40000F0B1F905E0786800F0A4F9786800F01F
:1031F400B3F97B6800221A777B681B681B6903F0AC
:103204000403042B22D17B681B68DB6803F00403EE
:10321400042B1BD17B681B686FF004021A617B6866
:1032240002221A777B681B689B6903F44073002BA6
:1032340003D0786800F087F905E0786800F07AF93F
:10324400786800F089F97B6800221A777B681B682C
:103254001B6903F00803082B22D17B681B68DB6819
:1032640003F00803082B1BD17B681B686FF008026E
:103274001A617B6804221A777B681B68DB6903F098
:103284000303002B03D0786800F05DF905E078684B
:1032940000F050F9786800F05FF97B6800221A7733
:1032A4007B681B681B6903F01003102B22D17B6819
:1032B4001B68DB6803F01003102B1BD17B681B68B1
:1032C4006FF010021A617B6808221A777B681B680A
:1032D400DB6903F44073002B03D0786800F033F902
:1032E40005E0786800F026F9786800F035F97B6825
:1032F40000221A777B681B681B6903F00103012B0A
:103304000ED17B681B68DB6803F00103012B07D136
:103314007B681B686FF001021A617868FDF7E2FFB1
:103324007B681B681B6903F08003802B0ED17B68CC
:103334001B68DB6803F08003802B07D17B681B6864
:103344006FF080021A61786800F09DFA7B681B6850
:103354001B6903F04003402B0ED17B681B68DB68BC
:1033640003F04003402B07D17B681B686FF04002D9
:103374001A61786800F0F9F87B681B681B6903F030
:103384002003202B0ED17B681B68DB6803F020032D
:10339400202B07D17B681B686FF020021A617868C4
:1033A40000F068FA00BF0837BD4680BD80B584B020
:1033B40000AF786039607B6893F83C30012B01D111
:1033C4000223B3E07B68012283F83C207B6802225D
:1033D40083F83D207B681B689B68FB60FB6823F0D7
:1033E4007703FB60FB6823F47F43FB607B681B6807
:1033F400FA689A603B681B68B3F5005F3ED0B3F58A
:10340400005F00F28780B3F5805F00F08580B3F53C
:10341400805F7FD8702B1AD0702B7BD8602B50D054
:10342400602B77D8502B3CD0502B73D8402B58D0DE
:10343400402B6FD8302B64D0302B6BD8202B60D02E
:10344400202B67D8002B5CD0102B5AD062E07B680D
:1034540018683B6899683B685A683B68DB6800F009
:103464007EF97B681B689B68FB60FB6843F077030D
:10347400FB607B681B68FA689A604EE07B6818689A
:103484003B6899683B685A683B68DB6800F067F9F9
:103494007B681B689A687B681B6842F480429A6068
:1034A4003BE07B6818683B6859683B68DB681A46F0
:1034B40000F0DEF87B681B685021184600F035F9EF
:1034C4002BE07B6818683B6859683B68DB681A46E0
:1034D40000F0FCF87B681B686021184600F025F9B1
:1034E4001BE07B6818683B6859683B68DB681A46D0
:1034F40000F0BEF87B681B684021184600F015F9FF
:103504000BE07B681A683B681B681946104600F09C
:103514000CF902E000BF00E000BF7B68012283F8E1
:103524003D207B68002283F83C2000231846103796
:10353400BD4680BD80B483B000AF786000BF0C3757
:10354400BD4680BC704780B483B000AF786000BFD4
:103554000C37BD4680BC704780B483B000AF786040
:1035640000BF0C37BD4680BC704780B483B000AF49
:10357400786000BF0C37BD4680BC704780B485B00E
:1035840000AF786039607B681B68FB607B68334AF6
:10359400934213D07B68324A93420FD07B68B3F1D5
:1035A400804F0BD07B682F4A934207D07B682E4A0A
:1035B400934203D07B682D4A934208D1FB6823F0E1
:1035C4007003FB603B685B68FA681343FB607B68CD
:1035D400224A934213D07B68214A93420FD07B68DE
:1035E400B3F1804F0BD07B681E4A934207D07B68AF
:1035F4001D4A934203D07B681C4A934208D1FB685E
:1036040023F44073FB603B68DB68FA681343FB6098
:10361400FB6823F080023B685B691343FB607B68B3
:10362400FA681A603B689A687B68DA623B681A68D1
:103634007B689A627B68094A934203D07B68084A94
:10364400934203D13B681A697B681A637B68012241
:103654005A6100BF1437BD4680BC7047002C01403E
:10366400003401400004004000080040000C004009
:1036740080B487B000AFF860B9607A60FB681B6AF9
:103684007B61FB681B6A23F00102FB681A62FB681A
:103694009B693B613B6923F0F0033B617B681B0141
:1036A4003A6913433B617B6923F00A037B617A69BE
:1036B400BB6813437B61FB683A699A61FB687A696A
:1036C4001A6200BF1C37BD4680BC704780B487B007
:1036D40000AFF860B9607A60FB681B6A23F01002DF
:1036E400FB681A62FB689B697B61FB681B6A3B6130
:1036F4007B6923F470437B617B681B037A69134302
:103704007B613B6923F0A0033B61BB681B013A6901
:1037140013433B61FB687A699A61FB683A691A62F0
:1037240000BF1C37BD4680BC704780B485B000AF75
:10373400786039607B689B68FB60FB6823F07003EA
:10374400FB603A68FB68134343F00703FB607B6844
:10375400FA689A6000BF1437BD4680BC704780B4D5
:1037640087B000AFF860B9607A603B60FB689B6823
:103774007B617B6923F47F437B613B681A027B682E
:103784001A43BB6813437A6913437B61FB687A6904
:103794009A6000BF1C37BD4680BC704780B485B0BA
:1037A40000AF786039607B6893F83C30012B01D11D
:1037B400022350E07B68012283F83C207B680222CC
:1037C40083F83D207B681B685B68FB607B681B6833
:1037D4009B68BB60FB6823F07003FB603B681B685D
:1037E400FA681343FB607B681B68FA685A607B685D
:1037F4001B681B4A934218D07B681B68194A934282
:1038040013D07B681B68B3F1804F0ED07B681B68B4
:10381400154A934209D07B681B68144A934204D02A
:103824007B681B68124A93420CD1BB6823F0800367
:10383400BB603B685B68BA681343BB607B681B680A
:10384400BA689A607B68012283F83D207B68002275
:1038540083F83C20002318461437BD4680BC7047CB
:10386400002C0140003401400004004000080040E6
:10387400000C004080B483B000AF786000BF0C3708
:10388400BD4680BC704780B483B000AF786000BF91
:103894000C37BD4680BC704780B582B000AF7860FD
:1038A4007B68002B01D101233FE07B6893F83D3016
:1038B400DBB2002B06D17B68002283F83C207868B9
:1038C400FDF7CAFD7B68242283F83D207B681B68D2
:1038D400DA687B681B6822F40052DA60786800F0CA
:1038E40085FC7B681B681A697B681B6822F490421C
:1038F4001A617B681B685A697B681B6822F02A027C
:103904005A617B681B68DA687B681B6842F4005262
:10391400DA607B6800221A647B68202283F83D20E9
:103924007B68202283F83E20002318460837BD46D2
:1039340080BD80B58AB002AFF860B9603B601346C1
:10394400FB8000237B61FB6893F83D30DBB2202BC6
:103954007CD1BB68002B02D0FB88002B01D1012352
:1039640075E0FB6893F83C30012B01D102236EE033
:10397400FB68012283F83C20FB6800221A64FB6880
:10398400212283F83D20FDF7B1FE7861FB68FA88B7
:103994009A84FB68FA88DA84FB689B68B3F5805FD5
:1039A40008D1FB681B69002B04D10023FB61BB68B1
:1039B400BB6103E0BB68FB610023BB61FB680022C1
:1039C40083F83C202AE03B6800937B690022802135
:1039D400F86800F038FA0346002B01D0032336E0E0
:1039E400FB69002B0BD1BB691B881A46FB681B685B
:1039F400C2F308025A60BB690233BB6107E0FB698A
:103A04001A78FB681B685A60FB690133FB61FB6829
:103A1400DB8C9BB2013B9AB2FB68DA84FB68DB8CDB
:103A24009BB2002BCFD13B6800937B6900224021DD
:103A3400F86800F008FA0346002B01D0032306E0DF
:103A4400FB68202283F83D20002300E0022318466F
:103A54002037BD4680BD80B584B000AFF860B96042
:103A64001346FB80FB6893F83E30DBB2202B1DD15C
:103A7400BB68002B02D0FB88002B01D1012316E088
:103A8400FB6893F83C30012B01D102230FE0FB6863
:103A9400012283F83C20FB6800221A63FB881A4643
:103AA400B968F86800F019FA034600E002231846E2
:103AB4001037BD4680BD000080B58AB000AF786085
:103AC4007B681B681B687B627B681B68DB683B62E6
:103AD4007B681B685B69FB610023BB6100237B611E
:103AE4007B6A03F00F03BB61BB69002B0DD17B6ABA
:103AF40003F02003002B08D03B6A03F02003002BC3
:103B040003D0786800F0C9FA7BE1BB69002B00F0B0
:103B1400B180FB6903F00103002B05D13B6A03F478
:103B24009073002B00F0A6807B6A03F00103002B46
:103B34000AD03B6A03F48073002B05D07B681B6CAE
:103B440043F001027B681A647B6A03F00403002BD0
:103B54000AD0FB6903F00103002B05D07B681B6CC2
:103B640043F002027B681A647B6A03F00203002BB1
:103B74000AD0FB6903F00103002B05D07B681B6CA2
:103B840043F004027B681A647B6A03F00803002B89
:103B94000FD03B6A03F02003002B04D1FB6903F030
:103BA4000103002B05D07B681B6C43F008027B6883
:103BB4001A647B681B6C002B00F01E817B6A03F087
:103BC4002003002B07D03B6A03F02003002B02D014
:103BD400786800F062FA7B681B685B6903F0400355
:103BE400002B14BF01230023DBB27B617B681B6CB9
:103BF40003F00803002B02D17B69002B31D07868D5
:103C040000F0A4F97B681B685B6903F04003002B98
:103C140023D07B681B685A697B681B6822F04002CA
:103C24005A617B689B6B002B13D07B689B6B764A35
:103C34005A637B689B6B1846FDF7CEFE0346002B48
:103C440016D07B689B6B5B6B7A68926B10469847C7
:103C54000EE0786800F0E3F80AE0786800F0DFF836
:103C640006E0786800F0DBF87B6800221A64C3E0A1
:103C740000BFC1E07B681B6B012B40F0A1807B6A15
:103C840003F01003002B00F09B803B6A03F0100349
:103C9400002B00F095800023FB607B681B681B6889
:103CA400FB607B681B685B68FB60FB687B681B6868
:103CB4005B6903F04003002B4ED07B689B6B1B6851
:103CC4005B683B823B8A002B00F098807B689B8D6D
:103CD4003A8A9A4280F092807B683A8ADA857B68D5
:103CE4009B6B9B69202B2BD07B681B68DA687B68F5
:103CF4001B6822F48072DA607B681B685A697B68EF
:103D04001B6822F001025A617B681B685A697B6850
:103D14001B6822F040025A617B68202283F83E200F
:103D24007B6800221A637B681B68DA687B681B68FF
:103D340022F01002DA607B689B6B1846FDF711FED7
:103D44007B689A8D7B68DB8D9BB2D31A9BB2194634
:103D5400786800F06DF851E07B689A8D7B68DB8DA4
:103D64009BB2D31A7B827B68DB8D9BB2002B47D03E
:103D74007B8A002B44D07B681B68DA687B681B68ED
:103D840022F49072DA607B681B685A697B681B684E
:103D940022F001025A617B68202283F83E207B686E
:103DA40000221A637B681B68DA687B681B6822F050
:103DB4001002DA607B8A1946786800F039F81FE04F
:103DC4007B6A03F08003002B08D03B6A03F0800376
:103DD400002B03D0786800F0F9F812E07B6A03F056
:103DE4004003002B0DD03B6A03F04003002B08D0A6
:103DF400786800F03AF904E000BF02E000BF00E098
:103E040000BF2837BD4680BDA93F000880B483B0F9
:103E140000AF786000BF0C37BD4680BC704780B4EB
:103E240083B000AF786000BF0C37BD4680BC7047DC
:103E340080B483B000AF78600B467B8000BF0C3742
:103E4400BD4680BC704780B584B000AFF860B960EF
:103E54003B601346FB712CE0BB69B3F1FF3F28D0F4
:103E6400BB69002B07D0FDF741FC02463B68D31A1F
:103E7400BA699A421DD2FB681B68DA68FB681B6842
:103E840022F4D072DA60FB681B685A69FB681B680D
:103E940022F001025A61FB68202283F83D20FB686E
:103EA400202283F83E20FB68002283F83C20032371
:103EB4000FE0FB681B681A68BB681340BA689A4233
:103EC4000CBF01230023DBB21A46FB799A42C3D00C
:103ED400002318461037BD4680BD80B485B000AFBE
:103EE400F860B9601346FB80FB68BA689A62FB68A5
:103EF400FA889A85FB68FA88DA85FB6800221A64D6
:103F0400FB68222283F83E20FB68002283F83C20D1
:103F1400FB681B68DA68FB681B6842F48072DA602D
:103F2400FB681B685A69FB681B6842F001025A610E
:103F3400FB681B68DA68FB681B6842F02002DA60E1
:103F4400002318461437BD4680BC704780B483B044
:103F540000AF78607B681B68DA687B681B6822F4B2
:103F64009072DA607B681B685A697B681B6822F070
:103F740001025A617B681B6B012B07D17B681B68AC
:103F8400DA687B681B6822F01002DA607B68202202
:103F940083F83E207B6800221A6300BF0C37BD46BD
:103FA40080BC704780B584B000AF78607B685B6A82
:103FB400FB60FB680022DA85FB680022DA84F8687B
:103FC400FFF72DFF00BF1037BD4680BD80B485B01C
:103FD40000AF78607B6893F83D30DBB2212B3ED193
:103FE4007B689B68B3F5805F14D17B681B69002BE9
:103FF40010D17B681B6AFB60FB681B881A467B68D0
:104004001B68C2F308025A607B681B6A9A1C7B68AF
:104014001A6208E07B681B6A591C7A6811621A7874
:104024007B681B685A607B68DB8C9BB2013B9BB24C
:104034007A681946D184002B0FD17B681B68DA6833
:104044007B681B6822F08002DA607B681B68DA6890
:104054007B681B6842F04002DA60002300E0022320
:1040640018461437BD4680BC704780B582B000AF97
:1040740078607B681B68DA687B681B6822F0400202
:10408400DA607B68202283F83D207868FFF7BEFE63
:10409400002318460837BD4680BD80B586B000AF02
:1040A40078607B6893F83E30DBB2222B40F0998035
:1040B4007B689B68B3F5805F17D17B681B69002B15
:1040C40013D100237B617B689B6A3B617B681B681F
:1040D4005B689BB2C3F308039AB23B691A807B689E
:1040E4009B6A9A1C7B689A6226E07B689B6A7B6168
:1040F40000233B617B689B68B3F5805F07D07B68D6
:104104009B68002B0AD17B681B69002B06D17B6856
:104114001B685B68DAB27B691A7008E07B681B680D
:104124005B68DBB203F07F03DAB27B691A707B68E9
:104134009B6A5A1C7B689A627B68DB8D9BB2013B4D
:104144009BB27A681946D185002B48D17B681B68DD
:10415400DA687B681B6822F02002DA607B681B68DF
:10416400DA687B681B6822F48072DA607B681B68FB
:104174005A697B681B6822F001025A617B6820221D
:1041840083F83E207B681B6B012B23D17B680022C4
:104194001A637B681B68DA687B681B6822F010026C
:1041A400DA607B681B681B6803F01003102B0AD1CC
:1041B4000023FB607B681B681B68FB607B681B68D3
:1041C4005B68FB60FB687B689B8D19467868FFF72A
:1041D4002FFE02E07868FCF7D9FE002302E00023FA
:1041E40000E0022318461837BD4680BD80B584B070
:1041F40000AF78607B681B681B6923F440517B68BF
:10420400DA687B681B680A431A617B689A687B6872
:104214001B691A437B685B691343BB607B681B683B
:10422400DB6823F4B05323F00C037A681268B9688E
:104234000B43D3607B681B685B6923F440717B6824
:104244009A697B681B680A435A617B681B682C4A1D
:10425400934203D1FEF7C0FEF86002E0FEF7A8FE29
:10426400F860FA6813469B0013449A001A447B686A
:104274005B689B00B2FBF3F3224AA2FB03235B09B6
:104284001901FA6813469B0013449A001A447B6888
:104294005B689B00B2FBF3F21A4BA3FB02035B09BE
:1042A400642000FB03F3D31A1B013233154AA2FB2B
:1042B40003235B0903F0F0031944FA6813469B00D7
:1042C40013449A001A447B685B689B00B2FBF3F2C8
:1042D4000C4BA3FB02035B09642000FB03F3D31A1A
:1042E4001B013233074AA2FB03235B0903F00F02CD
:1042F4007B681B680A449A6000BF1037BD4680BDC6
:10430400003801401F85EB51014B1868704700BF0E
:104314004C00002070B500260C4D0D4C641BA410FD
:10432400A64209D100F05CFC00260A4D0A4C641B2D
:10433400A410A64205D170BD55F8043B9847013638
:10434400EEE755F8043B98470136F2E7C84C0008FD
:10435400C84C0008C84C0008CC4C00080346024472
:10436400934200D1704703F8011BF9E70EB46FF0D4
:10437400004100B59CB01DAB0290069007910491DA
:104384000848094953F8042B0591006802A90193D0
:1043940000F068F80022029B1A701CB05DF804EB70
:1043A40003B070474C0000200802FFFF2DE9F047DE
:1043B4008E6882469E420C4690461F4638D88A89AB
:1043C40012F4906F32D0256809690133A5EB010915
:1043D40065694B4405EB450505EBD5756D109D42AC
:1043E40038BF1D46530531D5294600F053FB064618
:1043F40050B90C234FF0FF30CAF80030A38943F0C2
:104404004003A381BDE8F0874A46216900F0CEFA53
:10441400A38923F4906343F08003A38126614E446F
:1044240026603E466561A5EB0905A560BE4200D93C
:104434003E4632464146206800F0C6FAA368226828
:104444009B1B32440020A3602260DBE72A4600F075
:104454007BFB06460028E1D15046216900F0CEFAE4
:10446400C7E700002DE9F04F98468B8907461B06E5
:104474000D4614469DB00ED50B6963B9402100F07A
:1044840009FB2860286120B90C233B604FF0FF3002
:10449400D1E040236B610023099320238DF8293058
:1044A40030234FF00109CDF80C80DFF8A4818DF89A
:1044B4002A3023469A4613F8012B0AB1252AF9D14A
:1044C400BAEB040B0BD05B46224629463846FFF76D
:1044D4006DFF013000F0AA80099A5A4409929AF8B3
:1044E4000030002B00F0A28000234FF0FF32CDE912
:1044F40005230AF1010A049307938DF853301A93A4
:104504005446052214F8011B514800F041FA049A5C
:10451400D8B9D00644BF20238DF85330110744BFC7
:104524002B238DF853309AF800302A2B15D054469B
:1045340000204FF00A0C079A214611F8013B303B4A
:10454400092B4ED9B0B1079214E0A0EB080309FA85
:1045540003F31343A2460493D2E7039B191D1B687C
:104564000391002BBBBF5B4242F002020793079307
:10457400B8BF049223782E2B0CD163782A2B35D123
:10458400039B02341A1D1B680392002BB8BF4FF023
:10459400FF330593DFF8C8A003225046217800F0CA
:1045A400F7F940B14023A0EB0A0003FA00F0049BA2
:1045B40001340343049314F8011B062225488DF8A3
:1045C400281000F0E5F9002838D0234B1BBB039BCF
:1045D400073323F0070308330393099B33440993F8
:1045E40067E70C4601200CFB0232A5E700234FF0DD
:1045F4000A0C194601340593204610F8012B303A71
:10460400092A03D9002BC5D00591C3E70446012329
:104614000CFB0121F0E703AB00932A4638460F4B0D
:1046240004A9AFF30080421C0646D6D1AB895B06D1
:104634003FF52CAF09981DB0BDE8F08F03AB009394
:104644002A463846054B04A900F07CF8EBE700BF86
:10465400944C00089E4C000800000000B143000880
:104664009A4C00082DE9F047164699468A680B696A
:1046740007469342B8BF1346336091F843200C4673
:10468400DDF820800AB1013333602368990642BF04
:10469400336802333360256815F0060506D104F14A
:1046A400190AE36832689B1AAB4228DC94F8432069
:1046B400131E226818BF012392062DD4494638469A
:1046C40004F14302C047013020D02368E56803F0B9
:1046D4000603042B18BF002532684FF00006A368B8
:1046E40008BFAD1A226908BF25EAE5759342C4BF25
:1046F4009B1AED181A34B5421AD1002008E00123A0
:10470400524649463846C047013003D14FF0FF3086
:10471400BDE8F0870135C4E73020E11881F8430093
:104724005A1C94F845102244023382F84310C5E71A
:104734000123224649463846C0470130E6D00136B7
:10474400D9E700002DE9FF470C46277E9146782FD4
:1047540080469A460C9904F1430207D8622F0AD87E
:10476400002F00F0D980582F00F0A48004F14206F5
:1047740084F842703AE0A7F16303152BF6D801A040
:1047840050F823F0E1470008F54700087147000896
:10479400714700087147000871470008F547000891
:1047A4007147000871470008714700087147000805
:1047B4000349000825480008E54800087147000837
:1047C400714700082549000871470008254800087A
:1047D4007147000871470008ED4800080B6804F1B0
:1047E40042061A1D1B680A6084F842300123A4E0C3
:1047F400256808682E0600F104030AD505680B60D5
:10480400002D03DA2D236D4284F843300A235E48D9
:1048140019E015F0400F05680B6018BF2DB2EFE7E3
:104824000B682568181D0860280601D51D6802E07C
:104834006906FBD51D886F2F0CBF08230A23524835
:10484400002184F843106668002EA8BF2168A66082
:10485400A4BF21F0040121600DB9002E4DD01646ED
:10486400B5FBF3F103FB1157C75D06F8017D2F4635
:10487400BB420D46F4D9082B0BD12368DF0708D5BA
:10488400236961689942DEBF302306F8013C06F1D2
:10489400FF36921B22614B4621464046CDF800A0CC
:1048A40003AAFFF7DFFE01304CD14FF0FF3004B014
:1048B400BDE8F087344884F845700E68236856F8DC
:1048C400045B1F060E6014D5D90744BF43F02003D0
:1048D40023601DB9236823F0200323601023AFE76E
:1048E400236843F0200323607823284884F8453064
:1048F400E3E75E0648BFADB2E6E71646BBE70B68E2
:1049040026681D1D60690D6035061B6801D5186099
:1049140002E07106FBD51880002316462361BAE72E
:104924000B681A1D0A601E6800213046626800F098
:104934002FF808B1801B606063682361002384F84A
:104944004330A8E73246494640462369D047013000
:10495400ABD023689B0713D4E068039B9842B8BF8D
:104964001846A4E70123324649464046D047013061
:104974009BD00135E36803995B1AAB42F2DCEBE7A9
:10498400002504F11906F5E7A54C0008B64C00080B
:10499400034610B5C9B202449342184601D100201F
:1049A40003E0047801338C42F6D110BD0A449142ED
:1049B40000F1FF3300D1704710B511F8014B91425B
:1049C40003F8014FF9D110BD884210B501EB020480
:1049D40002D98442234607D8431EA14208D011F8C5
:1049E400012B03F8012FF8E7014602448A4200D163
:1049F40010BD13F8014D02F8014DF7E738B505462F
:104A0400002943D051F8043C0C1F002BB8BFE41814
:104A140000F0D0F81E4A1368104633B9636014607E
:104A24002846BDE8384000F0CBB8A3420AD9216833
:104A34006218934201BF1A685B685218226063606F
:104A44000460EDE71A465B680BB1A342FAD911681A
:104A54005018A0420BD120680144501883421160C1
:104A6400DED118685B68014411605360D8E702D94D
:104A74000C232B60D4E7206821188B4201BF1968EE
:104A84005B680918216063605460C9E738BD00BFE2
:104A9400F0000020F8B5CD1C25F0030508350C2DD9
:104AA40038BF0C25002D064601DBA94203D90C238F
:104AB40033600020F8BD00F07DF821490A681446EF
:104AC4009CB9204F3B6823B92146304600F062F878
:104AD40038602946304600F05DF8431C23D10C238E
:104AE4003046336000F06CF8E3E723685B1B17D4AF
:104AF4000B2B03D923601C44256004E06368A242A5
:104B04000CBF0B605360304600F05AF804F10B0000
:104B1400231D20F00700C21ACCD01B1AA350C9E7EA
:104B240022466468CCE7C41C24F00304A042E3D00A
:104B3400211A304600F02EF80130DDD1CFE700BF56
:104B4400F0000020F4000020F8B5074614460E4695
:104B540021B91146BDE8F840FFF79CBF22B9FFF721
:104B64004DFF25462846F8BD00F030F8A0420FD28C
:104B740021463846FFF78EFF05460028F2D031461D
:104B84002246FFF713FF31463846FFF737FFE9E7C0
:104B94003546E7E738B50023054D044608462B6043
:104BA400FCF7EAFC431C02D12B6803B1236038BD37
:104BB4004C020020014800F011B800BF540200204C
:104BC400014800F00CB800BF5402002051F8043C26
:104BD400181F002BBCBF0B58C01870477047704794
:104BE400F8B500BFF8BC08BC9E467047F8B500BFD6
:084BF400F8BC08BC9E467047A6
:104BFC005052455353203020544F2052554E0000F4
:104C0C004E4F524D414C000054494D4500000000A0
:104C1C00256C750041444A55535420475245454E26
:104C2C0000000000454E544552204E455720564139
:104C3C004C55450056414C55452055504441544522
:104C4C00440000004E45572056414C55453A000053
:104C5C0041444A5553542059454C4C4F5700000081
:104C6C0002030405060708090A0B0C0D0E0F1010A1
:104C7C000000000000000000010203040607080900
:104C8C000000000001020304232D302B2000686C6F
:104C9C004C00656667454647003031323334353653
:104CAC00373839414243444546003031323334358C
:0C4CBC00363738396162636465660000B9
:044CC80009020008D5
:044CCC00E5010008F6
:104CD00032000000F4010000F40100006400000054
:104CE000640000002C010000C80000000001080062
:104CF000000C0800006000000020030000410000DC
:104D000000000000000C030000000000000008008C
:104D10000024F400100000000100000050000020FA
:104D20000000000000000000000000000000000083
:104D30000000000000000000000000000000000073
:104D40000000000000000000000000000000000063
:104D50000000000000000000000000000000000053
:104D60000000000000000000000000000000000043
:104D70000000000000000000000000000000000033
:04000005080015F5E5
:00000001FF
